{
  "_format": "hh-sol-artifact-1",
  "contractName": "BallTraditional",
  "sourceName": "contracts/BallTraditional.sol",
  "abi": [
    {
      "inputs": [],
      "stateMutability": "nonpayable",
      "type": "constructor"
    },
    {
      "anonymous": false,
      "inputs": [
        {
          "indexed": true,
          "internalType": "address",
          "name": "owner",
          "type": "address"
        },
        {
          "indexed": true,
          "internalType": "address",
          "name": "approved",
          "type": "address"
        },
        {
          "indexed": true,
          "internalType": "uint256",
          "name": "tokenId",
          "type": "uint256"
        }
      ],
      "name": "Approval",
      "type": "event"
    },
    {
      "anonymous": false,
      "inputs": [
        {
          "indexed": true,
          "internalType": "address",
          "name": "owner",
          "type": "address"
        },
        {
          "indexed": true,
          "internalType": "address",
          "name": "operator",
          "type": "address"
        },
        {
          "indexed": false,
          "internalType": "bool",
          "name": "approved",
          "type": "bool"
        }
      ],
      "name": "ApprovalForAll",
      "type": "event"
    },
    {
      "anonymous": false,
      "inputs": [
        {
          "indexed": true,
          "internalType": "address",
          "name": "previousOwner",
          "type": "address"
        },
        {
          "indexed": true,
          "internalType": "address",
          "name": "newOwner",
          "type": "address"
        }
      ],
      "name": "OwnershipTransferred",
      "type": "event"
    },
    {
      "anonymous": false,
      "inputs": [
        {
          "indexed": true,
          "internalType": "address",
          "name": "from",
          "type": "address"
        },
        {
          "indexed": true,
          "internalType": "address",
          "name": "to",
          "type": "address"
        },
        {
          "indexed": true,
          "internalType": "uint256",
          "name": "tokenId",
          "type": "uint256"
        }
      ],
      "name": "Transfer",
      "type": "event"
    },
    {
      "inputs": [
        {
          "internalType": "address",
          "name": "to",
          "type": "address"
        },
        {
          "internalType": "uint256",
          "name": "tokenId",
          "type": "uint256"
        }
      ],
      "name": "approve",
      "outputs": [],
      "stateMutability": "nonpayable",
      "type": "function"
    },
    {
      "inputs": [
        {
          "internalType": "address",
          "name": "owner",
          "type": "address"
        }
      ],
      "name": "balanceOf",
      "outputs": [
        {
          "internalType": "uint256",
          "name": "",
          "type": "uint256"
        }
      ],
      "stateMutability": "view",
      "type": "function"
    },
    {
      "inputs": [
        {
          "internalType": "uint256",
          "name": "_tokenId",
          "type": "uint256"
        }
      ],
      "name": "burn",
      "outputs": [],
      "stateMutability": "nonpayable",
      "type": "function"
    },
    {
      "inputs": [
        {
          "internalType": "uint256",
          "name": "",
          "type": "uint256"
        }
      ],
      "name": "category",
      "outputs": [
        {
          "internalType": "uint256",
          "name": "",
          "type": "uint256"
        }
      ],
      "stateMutability": "view",
      "type": "function"
    },
    {
      "inputs": [
        {
          "internalType": "uint256",
          "name": "",
          "type": "uint256"
        }
      ],
      "name": "currentAccuracyLvl",
      "outputs": [
        {
          "internalType": "uint256",
          "name": "",
          "type": "uint256"
        }
      ],
      "stateMutability": "view",
      "type": "function"
    },
    {
      "inputs": [
        {
          "internalType": "uint256",
          "name": "",
          "type": "uint256"
        }
      ],
      "name": "currentPowerLvl",
      "outputs": [
        {
          "internalType": "uint256",
          "name": "",
          "type": "uint256"
        }
      ],
      "stateMutability": "view",
      "type": "function"
    },
    {
      "inputs": [
        {
          "internalType": "uint256",
          "name": "",
          "type": "uint256"
        }
      ],
      "name": "currentSpinLvl",
      "outputs": [
        {
          "internalType": "uint256",
          "name": "",
          "type": "uint256"
        }
      ],
      "stateMutability": "view",
      "type": "function"
    },
    {
      "inputs": [
        {
          "internalType": "uint256",
          "name": "",
          "type": "uint256"
        }
      ],
      "name": "currentTimeLvl",
      "outputs": [
        {
          "internalType": "uint256",
          "name": "",
          "type": "uint256"
        }
      ],
      "stateMutability": "view",
      "type": "function"
    },
    {
      "inputs": [],
      "name": "currentUri",
      "outputs": [
        {
          "internalType": "string",
          "name": "",
          "type": "string"
        }
      ],
      "stateMutability": "view",
      "type": "function"
    },
    {
      "inputs": [
        {
          "internalType": "uint256",
          "name": "tokenId",
          "type": "uint256"
        }
      ],
      "name": "getApproved",
      "outputs": [
        {
          "internalType": "address",
          "name": "",
          "type": "address"
        }
      ],
      "stateMutability": "view",
      "type": "function"
    },
    {
      "inputs": [],
      "name": "imageBaseURI",
      "outputs": [
        {
          "internalType": "string",
          "name": "",
          "type": "string"
        }
      ],
      "stateMutability": "view",
      "type": "function"
    },
    {
      "inputs": [
        {
          "internalType": "address",
          "name": "owner",
          "type": "address"
        },
        {
          "internalType": "address",
          "name": "operator",
          "type": "address"
        }
      ],
      "name": "isApprovedForAll",
      "outputs": [
        {
          "internalType": "bool",
          "name": "",
          "type": "bool"
        }
      ],
      "stateMutability": "view",
      "type": "function"
    },
    {
      "inputs": [
        {
          "internalType": "uint256",
          "name": "",
          "type": "uint256"
        }
      ],
      "name": "maxAccuracyLvl",
      "outputs": [
        {
          "internalType": "uint256",
          "name": "",
          "type": "uint256"
        }
      ],
      "stateMutability": "view",
      "type": "function"
    },
    {
      "inputs": [
        {
          "internalType": "uint256",
          "name": "",
          "type": "uint256"
        }
      ],
      "name": "maxPowerLvl",
      "outputs": [
        {
          "internalType": "uint256",
          "name": "",
          "type": "uint256"
        }
      ],
      "stateMutability": "view",
      "type": "function"
    },
    {
      "inputs": [
        {
          "internalType": "uint256",
          "name": "",
          "type": "uint256"
        }
      ],
      "name": "maxSpinLvl",
      "outputs": [
        {
          "internalType": "uint256",
          "name": "",
          "type": "uint256"
        }
      ],
      "stateMutability": "view",
      "type": "function"
    },
    {
      "inputs": [
        {
          "internalType": "uint256",
          "name": "",
          "type": "uint256"
        }
      ],
      "name": "maxTimeLvl",
      "outputs": [
        {
          "internalType": "uint256",
          "name": "",
          "type": "uint256"
        }
      ],
      "stateMutability": "view",
      "type": "function"
    },
    {
      "inputs": [
        {
          "internalType": "uint256",
          "name": "typeId",
          "type": "uint256"
        }
      ],
      "name": "mint",
      "outputs": [],
      "stateMutability": "payable",
      "type": "function"
    },
    {
      "inputs": [],
      "name": "name",
      "outputs": [
        {
          "internalType": "string",
          "name": "",
          "type": "string"
        }
      ],
      "stateMutability": "view",
      "type": "function"
    },
    {
      "inputs": [],
      "name": "owner",
      "outputs": [
        {
          "internalType": "address",
          "name": "",
          "type": "address"
        }
      ],
      "stateMutability": "view",
      "type": "function"
    },
    {
      "inputs": [
        {
          "internalType": "uint256",
          "name": "tokenId",
          "type": "uint256"
        }
      ],
      "name": "ownerOf",
      "outputs": [
        {
          "internalType": "address",
          "name": "",
          "type": "address"
        }
      ],
      "stateMutability": "view",
      "type": "function"
    },
    {
      "inputs": [],
      "name": "ownerWithdraw",
      "outputs": [],
      "stateMutability": "nonpayable",
      "type": "function"
    },
    {
      "inputs": [],
      "name": "renounceOwnership",
      "outputs": [],
      "stateMutability": "nonpayable",
      "type": "function"
    },
    {
      "inputs": [
        {
          "internalType": "address",
          "name": "from",
          "type": "address"
        },
        {
          "internalType": "address",
          "name": "to",
          "type": "address"
        },
        {
          "internalType": "uint256",
          "name": "tokenId",
          "type": "uint256"
        }
      ],
      "name": "safeTransferFrom",
      "outputs": [],
      "stateMutability": "nonpayable",
      "type": "function"
    },
    {
      "inputs": [
        {
          "internalType": "address",
          "name": "from",
          "type": "address"
        },
        {
          "internalType": "address",
          "name": "to",
          "type": "address"
        },
        {
          "internalType": "uint256",
          "name": "tokenId",
          "type": "uint256"
        },
        {
          "internalType": "bytes",
          "name": "data",
          "type": "bytes"
        }
      ],
      "name": "safeTransferFrom",
      "outputs": [],
      "stateMutability": "nonpayable",
      "type": "function"
    },
    {
      "inputs": [
        {
          "internalType": "address",
          "name": "operator",
          "type": "address"
        },
        {
          "internalType": "bool",
          "name": "approved",
          "type": "bool"
        }
      ],
      "name": "setApprovalForAll",
      "outputs": [],
      "stateMutability": "nonpayable",
      "type": "function"
    },
    {
      "inputs": [
        {
          "internalType": "string",
          "name": "_imageBaseURI",
          "type": "string"
        }
      ],
      "name": "setImageBaseUri",
      "outputs": [],
      "stateMutability": "nonpayable",
      "type": "function"
    },
    {
      "inputs": [
        {
          "internalType": "bytes4",
          "name": "interfaceId",
          "type": "bytes4"
        }
      ],
      "name": "supportsInterface",
      "outputs": [
        {
          "internalType": "bool",
          "name": "",
          "type": "bool"
        }
      ],
      "stateMutability": "view",
      "type": "function"
    },
    {
      "inputs": [],
      "name": "symbol",
      "outputs": [
        {
          "internalType": "string",
          "name": "",
          "type": "string"
        }
      ],
      "stateMutability": "view",
      "type": "function"
    },
    {
      "inputs": [],
      "name": "tokenId",
      "outputs": [
        {
          "internalType": "uint256",
          "name": "",
          "type": "uint256"
        }
      ],
      "stateMutability": "view",
      "type": "function"
    },
    {
      "inputs": [
        {
          "internalType": "uint256",
          "name": "",
          "type": "uint256"
        }
      ],
      "name": "tokenIdType",
      "outputs": [
        {
          "internalType": "uint256",
          "name": "",
          "type": "uint256"
        }
      ],
      "stateMutability": "view",
      "type": "function"
    },
    {
      "inputs": [
        {
          "internalType": "uint256",
          "name": "tokenId",
          "type": "uint256"
        }
      ],
      "name": "tokenURI",
      "outputs": [
        {
          "internalType": "string",
          "name": "",
          "type": "string"
        }
      ],
      "stateMutability": "view",
      "type": "function"
    },
    {
      "inputs": [
        {
          "internalType": "address",
          "name": "from",
          "type": "address"
        },
        {
          "internalType": "address",
          "name": "to",
          "type": "address"
        },
        {
          "internalType": "uint256",
          "name": "tokenId",
          "type": "uint256"
        }
      ],
      "name": "transferFrom",
      "outputs": [],
      "stateMutability": "nonpayable",
      "type": "function"
    },
    {
      "inputs": [
        {
          "internalType": "address",
          "name": "newOwner",
          "type": "address"
        }
      ],
      "name": "transferOwnership",
      "outputs": [],
      "stateMutability": "nonpayable",
      "type": "function"
    },
    {
      "inputs": [
        {
          "internalType": "uint256",
          "name": "_tokenId",
          "type": "uint256"
        },
        {
          "internalType": "uint256",
          "name": "_upgradePowerLvl",
          "type": "uint256"
        },
        {
          "internalType": "uint256",
          "name": "_upgradeAccuracyLvl",
          "type": "uint256"
        },
        {
          "internalType": "uint256",
          "name": "_upgradeSpinLvl",
          "type": "uint256"
        },
        {
          "internalType": "uint256",
          "name": "_upgradeTimeLvl",
          "type": "uint256"
        }
      ],
      "name": "upgrade",
      "outputs": [],
      "stateMutability": "payable",
      "type": "function"
    },
    {
      "inputs": [
        {
          "internalType": "address",
          "name": "",
          "type": "address"
        },
        {
          "internalType": "uint256",
          "name": "",
          "type": "uint256"
        }
      ],
      "name": "userTokenIds",
      "outputs": [
        {
          "internalType": "uint256",
          "name": "",
          "type": "uint256"
        }
      ],
      "stateMutability": "view",
      "type": "function"
    }
  ],
  "bytecode": "0x60806040523480156200001157600080fd5b506040518060400160405280600f81526020017f42616c6c547261646974696f6e616c00000000000000000000000000000000008152506040518060400160405280600381526020017f4241540000000000000000000000000000000000000000000000000000000000815250816000908051906020019062000096929190620001a6565b508060019080519060200190620000af929190620001a6565b505050620000d2620000c6620000d860201b60201c565b620000e060201b60201c565b620002bb565b600033905090565b6000600760009054906101000a900473ffffffffffffffffffffffffffffffffffffffff16905081600760006101000a81548173ffffffffffffffffffffffffffffffffffffffff021916908373ffffffffffffffffffffffffffffffffffffffff1602179055508173ffffffffffffffffffffffffffffffffffffffff168173ffffffffffffffffffffffffffffffffffffffff167f8be0079c531659141344cd1fd0a4f28419497f9722a3daafe3b4186f6b6457e060405160405180910390a35050565b828054620001b49062000285565b90600052602060002090601f016020900481019282620001d8576000855562000224565b82601f10620001f357805160ff191683800117855562000224565b8280016001018555821562000224579182015b828111156200022357825182559160200191906001019062000206565b5b50905062000233919062000237565b5090565b5b808211156200025257600081600090555060010162000238565b5090565b7f4e487b7100000000000000000000000000000000000000000000000000000000600052602260045260246000fd5b600060028204905060018216806200029e57607f821691505b60208210811415620002b557620002b462000256565b5b50919050565b61562c80620002cb6000396000f3fe6080604052600436106102045760003560e01c806370a0823111610118578063b49f7e2d116100a0578063cc17e15d1161006f578063cc17e15d146107dc578063d55cae2714610819578063e4d2c94e14610835578063e985e9c514610860578063f2fde38b1461089d57610204565b8063b49f7e2d146106fc578063b88d4fde14610739578063c87b56dd14610762578063c9083cd91461079f57610204565b80638cc04784116100e75780638cc04784146106245780638da5cb5b1461066157806395d89b411461068c578063a0712d68146106b7578063a22cb465146106d357610204565b806370a0823114610568578063715018a6146105a557806377645839146105bc57806381a4b116146105e757610204565b80632603f2871161019b5780634311de8f1161016a5780634311de8f1461045d5780634fffbe0e1461047457806352a3302b146104b15780636352211e146104ee5780636f2829ba1461052b57610204565b80632603f287146103a557806339b92bbb146103e257806342842e0e1461040b57806342966c681461043457610204565b806317d70f7c116101d757806317d70f7c146102d757806322ea00f91461030257806323b872dd1461033f578063253eca1f1461036857610204565b806301ffc9a71461020957806306fdde0314610246578063081812fc14610271578063095ea7b3146102ae575b600080fd5b34801561021557600080fd5b50610230600480360381019061022b91906137c1565b6108c6565b60405161023d9190613809565b60405180910390f35b34801561025257600080fd5b5061025b6109a8565b60405161026891906138bd565b60405180910390f35b34801561027d57600080fd5b5061029860048036038101906102939190613915565b610a3a565b6040516102a59190613983565b60405180910390f35b3480156102ba57600080fd5b506102d560048036038101906102d091906139ca565b610a80565b005b3480156102e357600080fd5b506102ec610b98565b6040516102f99190613a19565b60405180910390f35b34801561030e57600080fd5b5061032960048036038101906103249190613915565b610b9e565b6040516103369190613a19565b60405180910390f35b34801561034b57600080fd5b5061036660048036038101906103619190613a34565b610bb6565b005b34801561037457600080fd5b5061038f600480360381019061038a9190613915565b610c16565b60405161039c9190613a19565b60405180910390f35b3480156103b157600080fd5b506103cc60048036038101906103c79190613915565b610c2e565b6040516103d99190613a19565b60405180910390f35b3480156103ee57600080fd5b5061040960048036038101906104049190613bbc565b610c46565b005b34801561041757600080fd5b50610432600480360381019061042d9190613a34565b610c68565b005b34801561044057600080fd5b5061045b60048036038101906104569190613915565b610c88565b005b34801561046957600080fd5b50610472610f6d565b005b34801561048057600080fd5b5061049b60048036038101906104969190613915565b61102a565b6040516104a89190613a19565b60405180910390f35b3480156104bd57600080fd5b506104d860048036038101906104d39190613915565b611042565b6040516104e59190613a19565b60405180910390f35b3480156104fa57600080fd5b5061051560048036038101906105109190613915565b61105a565b6040516105229190613983565b60405180910390f35b34801561053757600080fd5b50610552600480360381019061054d9190613915565b61110c565b60405161055f9190613a19565b60405180910390f35b34801561057457600080fd5b5061058f600480360381019061058a9190613c05565b611124565b60405161059c9190613a19565b60405180910390f35b3480156105b157600080fd5b506105ba6111dc565b005b3480156105c857600080fd5b506105d16111f0565b6040516105de91906138bd565b60405180910390f35b3480156105f357600080fd5b5061060e60048036038101906106099190613915565b61127e565b60405161061b9190613a19565b60405180910390f35b34801561063057600080fd5b5061064b60048036038101906106469190613915565b611296565b6040516106589190613a19565b60405180910390f35b34801561066d57600080fd5b506106766112ae565b6040516106839190613983565b60405180910390f35b34801561069857600080fd5b506106a16112d8565b6040516106ae91906138bd565b60405180910390f35b6106d160048036038101906106cc9190613915565b61136a565b005b3480156106df57600080fd5b506106fa60048036038101906106f59190613c5e565b611525565b005b34801561070857600080fd5b50610723600480360381019061071e9190613915565b61153b565b6040516107309190613a19565b60405180910390f35b34801561074557600080fd5b50610760600480360381019061075b9190613d3f565b611553565b005b34801561076e57600080fd5b5061078960048036038101906107849190613915565b6115b5565b60405161079691906138bd565b60405180910390f35b3480156107ab57600080fd5b506107c660048036038101906107c19190613915565b6116c8565b6040516107d39190613a19565b60405180910390f35b3480156107e857600080fd5b5061080360048036038101906107fe91906139ca565b6116e0565b6040516108109190613a19565b60405180910390f35b610833600480360381019061082e9190613dc2565b611711565b005b34801561084157600080fd5b5061084a6119b5565b60405161085791906138bd565b60405180910390f35b34801561086c57600080fd5b5061088760048036038101906108829190613e3d565b611a43565b6040516108949190613809565b60405180910390f35b3480156108a957600080fd5b506108c460048036038101906108bf9190613c05565b611ad7565b005b60007f80ac58cd000000000000000000000000000000000000000000000000000000007bffffffffffffffffffffffffffffffffffffffffffffffffffffffff1916827bffffffffffffffffffffffffffffffffffffffffffffffffffffffff1916148061099157507f5b5e139f000000000000000000000000000000000000000000000000000000007bffffffffffffffffffffffffffffffffffffffffffffffffffffffff1916827bffffffffffffffffffffffffffffffffffffffffffffffffffffffff1916145b806109a157506109a082611b5b565b5b9050919050565b6060600080546109b790613eac565b80601f01602080910402602001604051908101604052809291908181526020018280546109e390613eac565b8015610a305780601f10610a0557610100808354040283529160200191610a30565b820191906000526020600020905b815481529060010190602001808311610a1357829003601f168201915b5050505050905090565b6000610a4582611bc5565b6004600083815260200190815260200160002060009054906101000a900473ffffffffffffffffffffffffffffffffffffffff169050919050565b6000610a8b8261105a565b90508073ffffffffffffffffffffffffffffffffffffffff168373ffffffffffffffffffffffffffffffffffffffff161415610afc576040517f08c379a0000000000000000000000000000000000000000000000000000000008152600401610af390613f50565b60405180910390fd5b8073ffffffffffffffffffffffffffffffffffffffff16610b1b611c10565b73ffffffffffffffffffffffffffffffffffffffff161480610b4a5750610b4981610b44611c10565b611a43565b5b610b89576040517f08c379a0000000000000000000000000000000000000000000000000000000008152600401610b8090613fe2565b60405180910390fd5b610b938383611c18565b505050565b60085481565b600f6020528060005260406000206000915090505481565b610bc7610bc1611c10565b82611cd1565b610c06576040517f08c379a0000000000000000000000000000000000000000000000000000000008152600401610bfd90614074565b60405180910390fd5b610c11838383611d66565b505050565b600d6020528060005260406000206000915090505481565b60116020528060005260406000206000915090505481565b610c4e611fcd565b8060099080519060200190610c64929190613672565b5050565b610c8383838360405180602001604052806000815250611553565b505050565b610c918161105a565b73ffffffffffffffffffffffffffffffffffffffff163373ffffffffffffffffffffffffffffffffffffffff1614610cfe576040517f08c379a0000000000000000000000000000000000000000000000000000000008152600401610cf590614106565b60405180910390fd5b60005b600b6000610d0e8461105a565b73ffffffffffffffffffffffffffffffffffffffff1673ffffffffffffffffffffffffffffffffffffffff16815260200190815260200160002080549050811015610f605781600b6000610d618561105a565b73ffffffffffffffffffffffffffffffffffffffff1673ffffffffffffffffffffffffffffffffffffffff1681526020019081526020016000208281548110610dad57610dac614126565b5b90600052602060002001541415610f4d57600b6000610dcb8461105a565b73ffffffffffffffffffffffffffffffffffffffff1673ffffffffffffffffffffffffffffffffffffffff1681526020019081526020016000206001600b6000610e148661105a565b73ffffffffffffffffffffffffffffffffffffffff1673ffffffffffffffffffffffffffffffffffffffff16815260200190815260200160002080549050610e5c9190614184565b81548110610e6d57610e6c614126565b5b9060005260206000200154600b6000610e858561105a565b73ffffffffffffffffffffffffffffffffffffffff1673ffffffffffffffffffffffffffffffffffffffff1681526020019081526020016000208281548110610ed157610ed0614126565b5b9060005260206000200181905550600b6000610eec8461105a565b73ffffffffffffffffffffffffffffffffffffffff1673ffffffffffffffffffffffffffffffffffffffff168152602001908152602001600020805480610f3657610f356141b8565b5b600190038181906000526020600020016000905590555b8080610f58906141e7565b915050610d01565b50610f6a8161204b565b50565b610f75611fcd565b600033905060008173ffffffffffffffffffffffffffffffffffffffff1647604051610fa090614261565b60006040518083038185875af1925050503d8060008114610fdd576040519150601f19603f3d011682016040523d82523d6000602084013e610fe2565b606091505b5050905080611026576040517f08c379a000000000000000000000000000000000000000000000000000000000815260040161101d906142c2565b60405180910390fd5b5050565b60136020528060005260406000206000915090505481565b600e6020528060005260406000206000915090505481565b6000806002600084815260200190815260200160002060009054906101000a900473ffffffffffffffffffffffffffffffffffffffff169050600073ffffffffffffffffffffffffffffffffffffffff168173ffffffffffffffffffffffffffffffffffffffff161415611103576040517f08c379a00000000000000000000000000000000000000000000000000000000081526004016110fa9061432e565b60405180910390fd5b80915050919050565b600c6020528060005260406000206000915090505481565b60008073ffffffffffffffffffffffffffffffffffffffff168273ffffffffffffffffffffffffffffffffffffffff161415611195576040517f08c379a000000000000000000000000000000000000000000000000000000000815260040161118c906143c0565b60405180910390fd5b600360008373ffffffffffffffffffffffffffffffffffffffff1673ffffffffffffffffffffffffffffffffffffffff168152602001908152602001600020549050919050565b6111e4611fcd565b6111ee600061209e565b565b600980546111fd90613eac565b80601f016020809104026020016040519081016040528092919081815260200182805461122990613eac565b80156112765780601f1061124b57610100808354040283529160200191611276565b820191906000526020600020905b81548152906001019060200180831161125957829003601f168201915b505050505081565b60156020528060005260406000206000915090505481565b60126020528060005260406000206000915090505481565b6000600760009054906101000a900473ffffffffffffffffffffffffffffffffffffffff16905090565b6060600180546112e790613eac565b80601f016020809104026020016040519081016040528092919081815260200182805461131390613eac565b80156113605780601f1061133557610100808354040283529160200191611360565b820191906000526020600020905b81548152906001019060200180831161134357829003601f168201915b5050505050905090565b670de0b6b3a764000034101561137f57600080fd5b60086000815480929190611392906141e7565b9190505550600b60003373ffffffffffffffffffffffffffffffffffffffff1673ffffffffffffffffffffffffffffffffffffffff168152602001908152602001600020600854908060018154018082558091505060019003906000526020600020016000909190919091505580600c600060085481526020019081526020016000208190555061142533600854612164565b80600d60006008548152602001908152602001600020819055506001600e60006008548152602001908152602001600020819055506001600f6000600854815260200190815260200160002081905550600160106000600854815260200190815260200160002081905550600160116000600854815260200190815260200160002081905550600560126000600854815260200190815260200160002081905550600560136000600854815260200190815260200160002081905550600560146000600854815260200190815260200160002081905550600560156000600854815260200190815260200160002081905550611522600854612182565b50565b611537611530611c10565b8383612519565b5050565b60106020528060005260406000206000915090505481565b61156461155e611c10565b83611cd1565b6115a3576040517f08c379a000000000000000000000000000000000000000000000000000000000815260040161159a90614074565b60405180910390fd5b6115af84848484612686565b50505050565b60606115c082611bc5565b60006006600084815260200190815260200160002080546115e090613eac565b80601f016020809104026020016040519081016040528092919081815260200182805461160c90613eac565b80156116595780601f1061162e57610100808354040283529160200191611659565b820191906000526020600020905b81548152906001019060200180831161163c57829003601f168201915b50505050509050600061166a6126e2565b90506000815114156116805781925050506116c3565b6000825111156116b557808260405160200161169d92919061441c565b604051602081830303815290604052925050506116c3565b6116be846126f9565b925050505b919050565b60146020528060005260406000206000915090505481565b600b60205281600052604060002081815481106116fc57600080fd5b90600052602060002001600091509150505481565b61171a8561105a565b73ffffffffffffffffffffffffffffffffffffffff163373ffffffffffffffffffffffffffffffffffffffff161461175157600080fd5b60008410158015611763575060008310155b8015611770575060008210155b801561177d575060008110155b80156117ba57506012600086815260200190815260200160002054600e600087815260200190815260200160002054856117b79190614440565b11155b80156117f757506013600086815260200190815260200160002054600f600087815260200190815260200160002054846117f49190614440565b11155b8015611834575060146000868152602001908152602001600020546010600087815260200190815260200160002054836118319190614440565b11155b80156118715750601560008681526020019081526020016000205460116000878152602001908152602001600020548261186e9190614440565b11155b6118b0576040517f08c379a00000000000000000000000000000000000000000000000000000000081526004016118a790614508565b60405180910390fd5b67016345785d8a00006005828486886118c99190614440565b6118d39190614440565b6118dd9190614440565b6118e79190614528565b6118f19190614528565b3410156118fd57600080fd5b83600e600087815260200190815260200160002060008282546119209190614440565b9250508190555082600f6000878152602001908152602001600020600082825461194a9190614440565b92505081905550816010600087815260200190815260200160002060008282546119749190614440565b925050819055508060116000878152602001908152602001600020600082825461199e9190614440565b925050819055506119ae85612182565b5050505050565b600a80546119c290613eac565b80601f01602080910402602001604051908101604052809291908181526020018280546119ee90613eac565b8015611a3b5780601f10611a1057610100808354040283529160200191611a3b565b820191906000526020600020905b815481529060010190602001808311611a1e57829003601f168201915b505050505081565b6000600560008473ffffffffffffffffffffffffffffffffffffffff1673ffffffffffffffffffffffffffffffffffffffff16815260200190815260200160002060008373ffffffffffffffffffffffffffffffffffffffff1673ffffffffffffffffffffffffffffffffffffffff16815260200190815260200160002060009054906101000a900460ff16905092915050565b611adf611fcd565b600073ffffffffffffffffffffffffffffffffffffffff168173ffffffffffffffffffffffffffffffffffffffff161415611b4f576040517f08c379a0000000000000000000000000000000000000000000000000000000008152600401611b46906145f4565b60405180910390fd5b611b588161209e565b50565b60007f01ffc9a7000000000000000000000000000000000000000000000000000000007bffffffffffffffffffffffffffffffffffffffffffffffffffffffff1916827bffffffffffffffffffffffffffffffffffffffffffffffffffffffff1916149050919050565b611bce81612761565b611c0d576040517f08c379a0000000000000000000000000000000000000000000000000000000008152600401611c049061432e565b60405180910390fd5b50565b600033905090565b816004600083815260200190815260200160002060006101000a81548173ffffffffffffffffffffffffffffffffffffffff021916908373ffffffffffffffffffffffffffffffffffffffff160217905550808273ffffffffffffffffffffffffffffffffffffffff16611c8b8361105a565b73ffffffffffffffffffffffffffffffffffffffff167f8c5be1e5ebec7d5bd14f71427d1e84f3dd0314c0f7b2291e5b200ac8c7c3b92560405160405180910390a45050565b600080611cdd8361105a565b90508073ffffffffffffffffffffffffffffffffffffffff168473ffffffffffffffffffffffffffffffffffffffff161480611d1f5750611d1e8185611a43565b5b80611d5d57508373ffffffffffffffffffffffffffffffffffffffff16611d4584610a3a565b73ffffffffffffffffffffffffffffffffffffffff16145b91505092915050565b8273ffffffffffffffffffffffffffffffffffffffff16611d868261105a565b73ffffffffffffffffffffffffffffffffffffffff1614611ddc576040517f08c379a0000000000000000000000000000000000000000000000000000000008152600401611dd390614686565b60405180910390fd5b600073ffffffffffffffffffffffffffffffffffffffff168273ffffffffffffffffffffffffffffffffffffffff161415611e4c576040517f08c379a0000000000000000000000000000000000000000000000000000000008152600401611e4390614718565b60405180910390fd5b611e578383836127cd565b611e62600082611c18565b6001600360008573ffffffffffffffffffffffffffffffffffffffff1673ffffffffffffffffffffffffffffffffffffffff1681526020019081526020016000206000828254611eb29190614184565b925050819055506001600360008473ffffffffffffffffffffffffffffffffffffffff1673ffffffffffffffffffffffffffffffffffffffff1681526020019081526020016000206000828254611f099190614440565b92505081905550816002600083815260200190815260200160002060006101000a81548173ffffffffffffffffffffffffffffffffffffffff021916908373ffffffffffffffffffffffffffffffffffffffff160217905550808273ffffffffffffffffffffffffffffffffffffffff168473ffffffffffffffffffffffffffffffffffffffff167fddf252ad1be2c89b69c2b068fc378daa952ba7f163c4a11628f55a4df523b3ef60405160405180910390a4611fc88383836127d2565b505050565b611fd5611c10565b73ffffffffffffffffffffffffffffffffffffffff16611ff36112ae565b73ffffffffffffffffffffffffffffffffffffffff1614612049576040517f08c379a000000000000000000000000000000000000000000000000000000000815260040161204090614784565b60405180910390fd5b565b612054816127d7565b600060066000838152602001908152602001600020805461207490613eac565b90501461209b5760066000828152602001908152602001600020600061209a91906136f8565b5b50565b6000600760009054906101000a900473ffffffffffffffffffffffffffffffffffffffff16905081600760006101000a81548173ffffffffffffffffffffffffffffffffffffffff021916908373ffffffffffffffffffffffffffffffffffffffff1602179055508173ffffffffffffffffffffffffffffffffffffffff168173ffffffffffffffffffffffffffffffffffffffff167f8be0079c531659141344cd1fd0a4f28419497f9722a3daafe3b4186f6b6457e060405160405180910390a35050565b61217e8282604051806020016040528060008152506128f4565b5050565b6040518061014001604052806040518060400160405280600f81526020017f42616c6c547261646974696f6e616c00000000000000000000000000000000008152508152602001600d6000848152602001908152602001600020548152602001600e6000848152602001908152602001600020548152602001600f600084815260200190815260200160002054815260200160106000848152602001908152602001600020548152602001601160008481526020019081526020016000205481526020016012600084815260200190815260200160002054815260200160136000848152602001908152602001600020548152602001601460008481526020019081526020016000205481526020016015600084815260200190815260200160002054815250601660008201518160000190805190602001906122c6929190613672565b506020820151816001015560408201518160020155606082015181600301556080820151816004015560a0820151816005015560c0820151816006015560e082015181600701556101008201518160080155610120820151816009015590505060006009612346600c60008581526020019081526020016000205461294f565b604051602001612357929190614838565b604051602081830303815290604052905060006124e3836123778561105a565b6040518060400160405280600581526020017f3842616c6c000000000000000000000000000000000000000000000000000000815250856040518060400160405280601781526020017f3842616c6c2069732066616e7461737469632067616d6500000000000000000081525060166040518061014001604052908160008201805461240290613eac565b80601f016020809104026020016040519081016040528092919081815260200182805461242e90613eac565b801561247b5780601f106124505761010080835404028352916020019161247b565b820191906000526020600020905b81548152906001019060200180831161245e57829003601f168201915b505050505081526020016001820154815260200160028201548152602001600382015481526020016004820154815260200160058201548152602001600682015481526020016007820154815260200160088201548152602001600982015481525050612ab0565b905060006124f082612afa565b905080600a9080519060200190612508929190613672565b506125138482612b2b565b50505050565b8173ffffffffffffffffffffffffffffffffffffffff168373ffffffffffffffffffffffffffffffffffffffff161415612588576040517f08c379a000000000000000000000000000000000000000000000000000000000815260040161257f906148a8565b60405180910390fd5b80600560008573ffffffffffffffffffffffffffffffffffffffff1673ffffffffffffffffffffffffffffffffffffffff16815260200190815260200160002060008473ffffffffffffffffffffffffffffffffffffffff1673ffffffffffffffffffffffffffffffffffffffff16815260200190815260200160002060006101000a81548160ff0219169083151502179055508173ffffffffffffffffffffffffffffffffffffffff168373ffffffffffffffffffffffffffffffffffffffff167f17307eab39ab6107e8899845ad3d59bd9653f200f220920489ca2b5937696c31836040516126799190613809565b60405180910390a3505050565b612691848484611d66565b61269d84848484612b9f565b6126dc576040517f08c379a00000000000000000000000000000000000000000000000000000000081526004016126d39061493a565b60405180910390fd5b50505050565b606060405180602001604052806000815250905090565b606061270482611bc5565b600061270e6126e2565b9050600081511161272e5760405180602001604052806000815250612759565b806127388461294f565b60405160200161274992919061441c565b6040516020818303038152906040525b915050919050565b60008073ffffffffffffffffffffffffffffffffffffffff166002600084815260200190815260200160002060009054906101000a900473ffffffffffffffffffffffffffffffffffffffff1673ffffffffffffffffffffffffffffffffffffffff1614159050919050565b505050565b505050565b60006127e28261105a565b90506127f0816000846127cd565b6127fb600083611c18565b6001600360008373ffffffffffffffffffffffffffffffffffffffff1673ffffffffffffffffffffffffffffffffffffffff168152602001908152602001600020600082825461284b9190614184565b925050819055506002600083815260200190815260200160002060006101000a81549073ffffffffffffffffffffffffffffffffffffffff021916905581600073ffffffffffffffffffffffffffffffffffffffff168273ffffffffffffffffffffffffffffffffffffffff167fddf252ad1be2c89b69c2b068fc378daa952ba7f163c4a11628f55a4df523b3ef60405160405180910390a46128f0816000846127d2565b5050565b6128fe8383612d36565b61290b6000848484612b9f565b61294a576040517f08c379a00000000000000000000000000000000000000000000000000000000081526004016129419061493a565b60405180910390fd5b505050565b60606000821415612997576040518060400160405280600181526020017f30000000000000000000000000000000000000000000000000000000000000008152509050612aab565b600082905060005b600082146129c95780806129b2906141e7565b915050600a826129c29190614989565b915061299f565b60008167ffffffffffffffff8111156129e5576129e4613a91565b5b6040519080825280601f01601f191660200182016040528015612a175781602001600182028036833780820191505090505b5090505b60008514612aa457600182612a309190614184565b9150600a85612a3f91906149ba565b6030612a4b9190614440565b60f81b818381518110612a6157612a60614126565b5b60200101907effffffffffffffffffffffffffffffffffffffffffffffffffffffffffffff1916908160001a905350600a85612a9d9190614989565b9450612a1b565b8093505050505b919050565b60606000612ac18888888888612f10565b905080612acd84612f6b565b604051602001612ade929190614a83565b6040516020818303038152906040529150509695505050505050565b6060612b0582613057565b604051602001612b159190614b09565b6040516020818303038152906040529050919050565b612b3482612761565b612b73576040517f08c379a0000000000000000000000000000000000000000000000000000000008152600401612b6a90614b9d565b60405180910390fd5b80600660008481526020019081526020016000209080519060200190612b9a929190613672565b505050565b6000612bc08473ffffffffffffffffffffffffffffffffffffffff166131bb565b15612d29578373ffffffffffffffffffffffffffffffffffffffff1663150b7a02612be9611c10565b8786866040518563ffffffff1660e01b8152600401612c0b9493929190614c12565b602060405180830381600087803b158015612c2557600080fd5b505af1925050508015612c5657506040513d601f19601f82011682018060405250810190612c539190614c73565b60015b612cd9573d8060008114612c86576040519150601f19603f3d011682016040523d82523d6000602084013e612c8b565b606091505b50600081511415612cd1576040517f08c379a0000000000000000000000000000000000000000000000000000000008152600401612cc89061493a565b60405180910390fd5b805181602001fd5b63150b7a0260e01b7bffffffffffffffffffffffffffffffffffffffffffffffffffffffff1916817bffffffffffffffffffffffffffffffffffffffffffffffffffffffff191614915050612d2e565b600190505b949350505050565b600073ffffffffffffffffffffffffffffffffffffffff168273ffffffffffffffffffffffffffffffffffffffff161415612da6576040517f08c379a0000000000000000000000000000000000000000000000000000000008152600401612d9d90614cec565b60405180910390fd5b612daf81612761565b15612def576040517f08c379a0000000000000000000000000000000000000000000000000000000008152600401612de690614d58565b60405180910390fd5b612dfb600083836127cd565b6001600360008473ffffffffffffffffffffffffffffffffffffffff1673ffffffffffffffffffffffffffffffffffffffff1681526020019081526020016000206000828254612e4b9190614440565b92505081905550816002600083815260200190815260200160002060006101000a81548173ffffffffffffffffffffffffffffffffffffffff021916908373ffffffffffffffffffffffffffffffffffffffff160217905550808273ffffffffffffffffffffffffffffffffffffffff16600073ffffffffffffffffffffffffffffffffffffffff167fddf252ad1be2c89b69c2b068fc378daa952ba7f163c4a11628f55a4df523b3ef60405160405180910390a4612f0c600083836127d2565b5050565b606083612f1c876131de565b8385612f3d8973ffffffffffffffffffffffffffffffffffffffff166132b6565b604051602001612f51959493929190614f40565b604051602081830303815290604052905095945050505050565b606060006040518060200160405280600081525090506000818460000151612f9686602001516131de565b612fa387604001516131de565b612fb088606001516131de565b612fbd89608001516131de565b612fca8a60a001516131de565b612fd78b60c001516131de565b612fe48c60e001516131de565b612ff28d61010001516131de565b6130008e61012001516131de565b60405160200161301a9b9a9998979695949392919061533d565b60405160208183030381529060405290508091508160405160200161303f91906154fe565b60405160208183030381529060405292505050919050565b606060008251141561307a576040518060200160405280600081525090506131b6565b60006040518060600160405280604081526020016155b760409139905060006003600285516130a99190614440565b6130b39190614989565b60046130bf9190614528565b67ffffffffffffffff8111156130d8576130d7613a91565b5b6040519080825280601f01601f19166020018201604052801561310a5781602001600182028036833780820191505090505b509050600182016020820185865187015b80821015613176576003820191508151603f8160121c168501518453600184019350603f81600c1c168501518453600184019350603f8160061c168501518453600184019350603f811685015184536001840193505061311b565b505060038651066001811461319257600281146131a5576131ad565b603d6001830353603d60028303536131ad565b603d60018303535b50505080925050505b919050565b6000808273ffffffffffffffffffffffffffffffffffffffff163b119050919050565b6060600060016131ed846132e3565b01905060008167ffffffffffffffff81111561320c5761320b613a91565b5b6040519080825280601f01601f19166020018201604052801561323e5781602001600182028036833780820191505090505b509050600082602001820190505b6001156132ab578080600190039150507f3031323334353637383961626364656600000000000000000000000000000000600a86061a8153600a85816132955761329461495a565b5b04945060008514156132a6576132ab565b61324c565b819350505050919050565b60606132dc8273ffffffffffffffffffffffffffffffffffffffff16601460ff16613436565b9050919050565b600080600090507a184f03e93ff9f4daa797ed6e38ed64bf6a1f0100000000000000008310613341577a184f03e93ff9f4daa797ed6e38ed64bf6a1f01000000000000000083816133375761333661495a565b5b0492506040810190505b6d04ee2d6d415b85acef8100000000831061337e576d04ee2d6d415b85acef810000000083816133745761337361495a565b5b0492506020810190505b662386f26fc1000083106133ad57662386f26fc1000083816133a3576133a261495a565b5b0492506010810190505b6305f5e10083106133d6576305f5e10083816133cc576133cb61495a565b5b0492506008810190505b61271083106133fb5761271083816133f1576133f061495a565b5b0492506004810190505b6064831061341e57606483816134145761341361495a565b5b0492506002810190505b600a831061342d576001810190505b80915050919050565b6060600060028360026134499190614528565b6134539190614440565b67ffffffffffffffff81111561346c5761346b613a91565b5b6040519080825280601f01601f19166020018201604052801561349e5781602001600182028036833780820191505090505b5090507f3000000000000000000000000000000000000000000000000000000000000000816000815181106134d6576134d5614126565b5b60200101907effffffffffffffffffffffffffffffffffffffffffffffffffffffffffffff1916908160001a9053507f78000000000000000000000000000000000000000000000000000000000000008160018151811061353a57613539614126565b5b60200101907effffffffffffffffffffffffffffffffffffffffffffffffffffffffffffff1916908160001a9053506000600184600261357a9190614528565b6135849190614440565b90505b6001811115613624577f3031323334353637383961626364656600000000000000000000000000000000600f8616601081106135c6576135c5614126565b5b1a60f81b8282815181106135dd576135dc614126565b5b60200101907effffffffffffffffffffffffffffffffffffffffffffffffffffffffffffff1916908160001a905350600485901c94508061361d90615520565b9050613587565b5060008414613668576040517f08c379a000000000000000000000000000000000000000000000000000000000815260040161365f90615596565b60405180910390fd5b8091505092915050565b82805461367e90613eac565b90600052602060002090601f0160209004810192826136a057600085556136e7565b82601f106136b957805160ff19168380011785556136e7565b828001600101855582156136e7579182015b828111156136e65782518255916020019190600101906136cb565b5b5090506136f49190613738565b5090565b50805461370490613eac565b6000825580601f106137165750613735565b601f0160209004906000526020600020908101906137349190613738565b5b50565b5b80821115613751576000816000905550600101613739565b5090565b6000604051905090565b600080fd5b600080fd5b60007fffffffff0000000000000000000000000000000000000000000000000000000082169050919050565b61379e81613769565b81146137a957600080fd5b50565b6000813590506137bb81613795565b92915050565b6000602082840312156137d7576137d661375f565b5b60006137e5848285016137ac565b91505092915050565b60008115159050919050565b613803816137ee565b82525050565b600060208201905061381e60008301846137fa565b92915050565b600081519050919050565b600082825260208201905092915050565b60005b8381101561385e578082015181840152602081019050613843565b8381111561386d576000848401525b50505050565b6000601f19601f8301169050919050565b600061388f82613824565b613899818561382f565b93506138a9818560208601613840565b6138b281613873565b840191505092915050565b600060208201905081810360008301526138d78184613884565b905092915050565b6000819050919050565b6138f2816138df565b81146138fd57600080fd5b50565b60008135905061390f816138e9565b92915050565b60006020828403121561392b5761392a61375f565b5b600061393984828501613900565b91505092915050565b600073ffffffffffffffffffffffffffffffffffffffff82169050919050565b600061396d82613942565b9050919050565b61397d81613962565b82525050565b60006020820190506139986000830184613974565b92915050565b6139a781613962565b81146139b257600080fd5b50565b6000813590506139c48161399e565b92915050565b600080604083850312156139e1576139e061375f565b5b60006139ef858286016139b5565b9250506020613a0085828601613900565b9150509250929050565b613a13816138df565b82525050565b6000602082019050613a2e6000830184613a0a565b92915050565b600080600060608486031215613a4d57613a4c61375f565b5b6000613a5b868287016139b5565b9350506020613a6c868287016139b5565b9250506040613a7d86828701613900565b9150509250925092565b600080fd5b600080fd5b7f4e487b7100000000000000000000000000000000000000000000000000000000600052604160045260246000fd5b613ac982613873565b810181811067ffffffffffffffff82111715613ae857613ae7613a91565b5b80604052505050565b6000613afb613755565b9050613b078282613ac0565b919050565b600067ffffffffffffffff821115613b2757613b26613a91565b5b613b3082613873565b9050602081019050919050565b82818337600083830152505050565b6000613b5f613b5a84613b0c565b613af1565b905082815260208101848484011115613b7b57613b7a613a8c565b5b613b86848285613b3d565b509392505050565b600082601f830112613ba357613ba2613a87565b5b8135613bb3848260208601613b4c565b91505092915050565b600060208284031215613bd257613bd161375f565b5b600082013567ffffffffffffffff811115613bf057613bef613764565b5b613bfc84828501613b8e565b91505092915050565b600060208284031215613c1b57613c1a61375f565b5b6000613c29848285016139b5565b91505092915050565b613c3b816137ee565b8114613c4657600080fd5b50565b600081359050613c5881613c32565b92915050565b60008060408385031215613c7557613c7461375f565b5b6000613c83858286016139b5565b9250506020613c9485828601613c49565b9150509250929050565b600067ffffffffffffffff821115613cb957613cb8613a91565b5b613cc282613873565b9050602081019050919050565b6000613ce2613cdd84613c9e565b613af1565b905082815260208101848484011115613cfe57613cfd613a8c565b5b613d09848285613b3d565b509392505050565b600082601f830112613d2657613d25613a87565b5b8135613d36848260208601613ccf565b91505092915050565b60008060008060808587031215613d5957613d5861375f565b5b6000613d67878288016139b5565b9450506020613d78878288016139b5565b9350506040613d8987828801613900565b925050606085013567ffffffffffffffff811115613daa57613da9613764565b5b613db687828801613d11565b91505092959194509250565b600080600080600060a08688031215613dde57613ddd61375f565b5b6000613dec88828901613900565b9550506020613dfd88828901613900565b9450506040613e0e88828901613900565b9350506060613e1f88828901613900565b9250506080613e3088828901613900565b9150509295509295909350565b60008060408385031215613e5457613e5361375f565b5b6000613e62858286016139b5565b9250506020613e73858286016139b5565b9150509250929050565b7f4e487b7100000000000000000000000000000000000000000000000000000000600052602260045260246000fd5b60006002820490506001821680613ec457607f821691505b60208210811415613ed857613ed7613e7d565b5b50919050565b7f4552433732313a20617070726f76616c20746f2063757272656e74206f776e6560008201527f7200000000000000000000000000000000000000000000000000000000000000602082015250565b6000613f3a60218361382f565b9150613f4582613ede565b604082019050919050565b60006020820190508181036000830152613f6981613f2d565b9050919050565b7f4552433732313a20617070726f76652063616c6c6572206973206e6f7420746f60008201527f6b656e206f776e6572206e6f7220617070726f76656420666f7220616c6c0000602082015250565b6000613fcc603e8361382f565b9150613fd782613f70565b604082019050919050565b60006020820190508181036000830152613ffb81613fbf565b9050919050565b7f4552433732313a2063616c6c6572206973206e6f7420746f6b656e206f776e6560008201527f72206e6f7220617070726f766564000000000000000000000000000000000000602082015250565b600061405e602e8361382f565b915061406982614002565b604082019050919050565b6000602082019050818103600083015261408d81614051565b9050919050565b7f4f6e6c7920746865206f776e6572206f66204e46542063616e207472616e736660008201527f6572206f722062756e7420697400000000000000000000000000000000000000602082015250565b60006140f0602d8361382f565b91506140fb82614094565b604082019050919050565b6000602082019050818103600083015261411f816140e3565b9050919050565b7f4e487b7100000000000000000000000000000000000000000000000000000000600052603260045260246000fd5b7f4e487b7100000000000000000000000000000000000000000000000000000000600052601160045260246000fd5b600061418f826138df565b915061419a836138df565b9250828210156141ad576141ac614155565b5b828203905092915050565b7f4e487b7100000000000000000000000000000000000000000000000000000000600052603160045260246000fd5b60006141f2826138df565b91507fffffffffffffffffffffffffffffffffffffffffffffffffffffffffffffffff82141561422557614224614155565b5b600182019050919050565b600081905092915050565b50565b600061424b600083614230565b91506142568261423b565b600082019050919050565b600061426c8261423e565b9150819050919050565b7f5769746864726177206661696c00000000000000000000000000000000000000600082015250565b60006142ac600d8361382f565b91506142b782614276565b602082019050919050565b600060208201905081810360008301526142db8161429f565b9050919050565b7f4552433732313a20696e76616c696420746f6b656e2049440000000000000000600082015250565b600061431860188361382f565b9150614323826142e2565b602082019050919050565b600060208201905081810360008301526143478161430b565b9050919050565b7f4552433732313a2061646472657373207a65726f206973206e6f74206120766160008201527f6c6964206f776e65720000000000000000000000000000000000000000000000602082015250565b60006143aa60298361382f565b91506143b58261434e565b604082019050919050565b600060208201905081810360008301526143d98161439d565b9050919050565b600081905092915050565b60006143f682613824565b61440081856143e0565b9350614410818560208601613840565b80840191505092915050565b600061442882856143eb565b915061443482846143eb565b91508190509392505050565b600061444b826138df565b9150614456836138df565b9250827fffffffffffffffffffffffffffffffffffffffffffffffffffffffffffffffff0382111561448b5761448a614155565b5b828201905092915050565b7f557067726164652076616c65206d757374206265206d6f7265207468616e203060008201527f20616e64206c657373207468616e206d61782076616c75650000000000000000602082015250565b60006144f260388361382f565b91506144fd82614496565b604082019050919050565b60006020820190508181036000830152614521816144e5565b9050919050565b6000614533826138df565b915061453e836138df565b9250817fffffffffffffffffffffffffffffffffffffffffffffffffffffffffffffffff048311821515161561457757614576614155565b5b828202905092915050565b7f4f776e61626c653a206e6577206f776e657220697320746865207a65726f206160008201527f6464726573730000000000000000000000000000000000000000000000000000602082015250565b60006145de60268361382f565b91506145e982614582565b604082019050919050565b6000602082019050818103600083015261460d816145d1565b9050919050565b7f4552433732313a207472616e736665722066726f6d20696e636f72726563742060008201527f6f776e6572000000000000000000000000000000000000000000000000000000602082015250565b600061467060258361382f565b915061467b82614614565b604082019050919050565b6000602082019050818103600083015261469f81614663565b9050919050565b7f4552433732313a207472616e7366657220746f20746865207a65726f2061646460008201527f7265737300000000000000000000000000000000000000000000000000000000602082015250565b600061470260248361382f565b915061470d826146a6565b604082019050919050565b60006020820190508181036000830152614731816146f5565b9050919050565b7f4f776e61626c653a2063616c6c6572206973206e6f7420746865206f776e6572600082015250565b600061476e60208361382f565b915061477982614738565b602082019050919050565b6000602082019050818103600083015261479d81614761565b9050919050565b60008190508160005260206000209050919050565b600081546147c681613eac565b6147d081866143e0565b945060018216600081146147eb57600181146147fc5761482f565b60ff1983168652818601935061482f565b614805856147a4565b60005b8381101561482757815481890152600182019150602081019050614808565b838801955050505b50505092915050565b600061484482856147b9565b915061485082846143eb565b91508190509392505050565b7f4552433732313a20617070726f766520746f2063616c6c657200000000000000600082015250565b600061489260198361382f565b915061489d8261485c565b602082019050919050565b600060208201905081810360008301526148c181614885565b9050919050565b7f4552433732313a207472616e7366657220746f206e6f6e20455243373231526560008201527f63656976657220696d706c656d656e7465720000000000000000000000000000602082015250565b600061492460328361382f565b915061492f826148c8565b604082019050919050565b6000602082019050818103600083015261495381614917565b9050919050565b7f4e487b7100000000000000000000000000000000000000000000000000000000600052601260045260246000fd5b6000614994826138df565b915061499f836138df565b9250826149af576149ae61495a565b5b828204905092915050565b60006149c5826138df565b91506149d0836138df565b9250826149e0576149df61495a565b5b828206905092915050565b7f7b00000000000000000000000000000000000000000000000000000000000000600082015250565b6000614a216001836143e0565b9150614a2c826149eb565b600182019050919050565b7f7d00000000000000000000000000000000000000000000000000000000000000600082015250565b6000614a6d6001836143e0565b9150614a7882614a37565b600182019050919050565b6000614a8e82614a14565b9150614a9a82856143eb565b9150614aa682846143eb565b9150614ab182614a60565b91508190509392505050565b7f646174613a6170706c69636174696f6e2f6a736f6e3b6261736536342c000000600082015250565b6000614af3601d836143e0565b9150614afe82614abd565b601d82019050919050565b6000614b1482614ae6565b9150614b2082846143eb565b915081905092915050565b7f45524337323155524953746f726167653a2055524920736574206f66206e6f6e60008201527f6578697374656e7420746f6b656e000000000000000000000000000000000000602082015250565b6000614b87602e8361382f565b9150614b9282614b2b565b604082019050919050565b60006020820190508181036000830152614bb681614b7a565b9050919050565b600081519050919050565b600082825260208201905092915050565b6000614be482614bbd565b614bee8185614bc8565b9350614bfe818560208601613840565b614c0781613873565b840191505092915050565b6000608082019050614c276000830187613974565b614c346020830186613974565b614c416040830185613a0a565b8181036060830152614c538184614bd9565b905095945050505050565b600081519050614c6d81613795565b92915050565b600060208284031215614c8957614c8861375f565b5b6000614c9784828501614c5e565b91505092915050565b7f4552433732313a206d696e7420746f20746865207a65726f2061646472657373600082015250565b6000614cd660208361382f565b9150614ce182614ca0565b602082019050919050565b60006020820190508181036000830152614d0581614cc9565b9050919050565b7f4552433732313a20746f6b656e20616c7265616479206d696e74656400000000600082015250565b6000614d42601c8361382f565b9150614d4d82614d0c565b602082019050919050565b60006020820190508181036000830152614d7181614d35565b9050919050565b7f226e616d65223a22000000000000000000000000000000000000000000000000600082015250565b6000614dae6008836143e0565b9150614db982614d78565b600882019050919050565b7f222c000000000000000000000000000000000000000000000000000000000000600082015250565b6000614dfa6002836143e0565b9150614e0582614dc4565b600282019050919050565b7f22746f6b656e4964223a22000000000000000000000000000000000000000000600082015250565b6000614e46600b836143e0565b9150614e5182614e10565b600b82019050919050565b7f226465736372697074696f6e223a220000000000000000000000000000000000600082015250565b6000614e92600f836143e0565b9150614e9d82614e5c565b600f82019050919050565b7f22696d616765223a220000000000000000000000000000000000000000000000600082015250565b6000614ede6009836143e0565b9150614ee982614ea8565b600982019050919050565b7f226f776e6572223a220000000000000000000000000000000000000000000000600082015250565b6000614f2a6009836143e0565b9150614f3582614ef4565b600982019050919050565b6000614f4b82614da1565b9150614f5782886143eb565b9150614f6282614ded565b9150614f6d82614e39565b9150614f7982876143eb565b9150614f8482614ded565b9150614f8f82614e85565b9150614f9b82866143eb565b9150614fa682614ded565b9150614fb182614ed1565b9150614fbd82856143eb565b9150614fc882614ded565b9150614fd382614f1d565b9150614fdf82846143eb565b9150614fea82614ded565b91508190509695505050505050565b7f7b226d696e7454797065223a2200000000000000000000000000000000000000600082015250565b600061502f600d836143e0565b915061503a82614ff9565b600d82019050919050565b7f2263617465676f7279223a000000000000000000000000000000000000000000600082015250565b600061507b600b836143e0565b915061508682615045565b600b82019050919050565b7f2c00000000000000000000000000000000000000000000000000000000000000600082015250565b60006150c76001836143e0565b91506150d282615091565b600182019050919050565b7f2263757272656e74506f7765724c766c223a0000000000000000000000000000600082015250565b60006151136012836143e0565b915061511e826150dd565b601282019050919050565b7f2263757272656e7441636375726163794c766c223a0000000000000000000000600082015250565b600061515f6015836143e0565b915061516a82615129565b601582019050919050565b7f2263757272656e745370696e4c766c223a000000000000000000000000000000600082015250565b60006151ab6011836143e0565b91506151b682615175565b601182019050919050565b7f2263757272656e7454696d654c766c223a000000000000000000000000000000600082015250565b60006151f76011836143e0565b9150615202826151c1565b601182019050919050565b7f226d6178506f7765724c766c223a000000000000000000000000000000000000600082015250565b6000615243600e836143e0565b915061524e8261520d565b600e82019050919050565b7f226d617841636375726163794c766c223a000000000000000000000000000000600082015250565b600061528f6011836143e0565b915061529a82615259565b601182019050919050565b7f226d61785370696e4c766c223a00000000000000000000000000000000000000600082015250565b60006152db600d836143e0565b91506152e6826152a5565b600d82019050919050565b7f226d617854696d654c766c223a00000000000000000000000000000000000000600082015250565b6000615327600d836143e0565b9150615332826152f1565b600d82019050919050565b6000615349828e6143eb565b915061535482615022565b9150615360828d6143eb565b915061536b82614ded565b91506153768261506e565b9150615382828c6143eb565b915061538d826150ba565b915061539882615106565b91506153a4828b6143eb565b91506153af826150ba565b91506153ba82615152565b91506153c6828a6143eb565b91506153d1826150ba565b91506153dc8261519e565b91506153e882896143eb565b91506153f3826150ba565b91506153fe826151ea565b915061540a82886143eb565b9150615415826150ba565b915061542082615236565b915061542c82876143eb565b9150615437826150ba565b915061544282615282565b915061544e82866143eb565b9150615459826150ba565b9150615464826152ce565b915061547082856143eb565b915061547b826150ba565b91506154868261531a565b915061549282846143eb565b915061549d82614a60565b91508190509c9b505050505050505050505050565b7f2261747472696275746573223a00000000000000000000000000000000000000600082015250565b60006154e8600d836143e0565b91506154f3826154b2565b600d82019050919050565b6000615509826154db565b915061551582846143eb565b915081905092915050565b600061552b826138df565b9150600082141561553f5761553e614155565b5b600182039050919050565b7f537472696e67733a20686578206c656e67746820696e73756666696369656e74600082015250565b600061558060208361382f565b915061558b8261554a565b602082019050919050565b600060208201905081810360008301526155af81615573565b905091905056fe4142434445464748494a4b4c4d4e4f505152535455565758595a6162636465666768696a6b6c6d6e6f707172737475767778797a303132333435363738392b2fa26469706673582212203f3e1e7f3baa95b63859bfef210fc7b0d5ce3f1fd962de31161d40040c57891a64736f6c63430008090033",
  "linkReferences": {},
  "deployedLinkReferences": {}
}